S00600004844521B
S11168181E8934021D58495849584910AE666D
S11349E43412BBBF231924028699B7BF238ECD008A
S11349F4BD498A8E106D8602C6266F8B5A2AFB4ADD
S1074A042AF63592C3
S1053B86121215
S1063B187E86E5BD
S10B86E534064A81097E3B1CA6
S1043B1E1290
S1062F977E86ED42
S11186EDB69FFCC602BD3B18BD31657E2F9AB8
S111516C6A000000FDA0970045F14234FDA149
S1055062200721
S10457633908
S113590734367CA1B4CC5BC6FD9912CC4F1DFDA0E7
S1135917167CA03D28037AA03D7DA1BA26288607D8
S1135927971E0C8CBD45F159530CA15D8600BD47EC
S11359371BBD46F34810AE9F9875AE2A2704E70EA1
S10C5947A70CE726A72735363921
S1047AF65D2E
S1057AED018012
S1057B0B010073
S1045B634EEF
S1045B702B05
S1048FED8AF5
S1067F33BD86FB09
S10986FB1212120F8E3969
S1064FFDBD870168
S1138701121212967D85042717968E27130A8E2638
S11387110FBD54D1968F810A24048B00978F978EB5
S1048721391A
S1052E278722FC
S10C87228601978E8608978F39B1
S1052E25872BF5
S10D872B7DA1A61026D0540F8E394C
S1054C9387355F
S1138735070C873D00000605000A66ABBBA00000D8
S113874506556BCBB00000A64456D546000A611504
S113875545445600A6652331356A006322544123F6
S1138765560065453562446600A6564454466A007B
S11387750B665524556A000ABB4213666A00064215
S10F878543566AA0000A55566AA0000082
S10650737E8791A0
S1138791962EB7A1B6B7A1B7CC87A3ED22EC3EDDE7
S11387A14339CC87ADED22EC3EDD4339CC87B7EDBF
S11387B122EC3EDD4339962EB7A1B6CC87C6ED2215
S11387C1EC3EDD4339CC87D0ED22EC3EDD4339CCA0
S10C87D18791ED22EC3EDD4339F1
S11364C53476AEB811BD64B0BD6883240935767DD4
S11364D5A1B5102CC94E1F21EC8816108300002687
S11364E506AEB8117E663A8606F6A1B7AEB811BDFA
S11364F560B88E5EA3BD61A4BD61E1AEB811860628
S1136505F6A1B7BD60F48E5EA3BD61A4BD620B7E2A
S1056515660317
S10666817E87DA33
S11387DAA6A81D8104270532647E6603BD67A47EAC
S10587EA66849F
S10660C2BD617E3B
S10660FEBD617EFF
S106668BBD87ECD8
S10987EC12AE9F4F50394C
S106669BBD87F2C2
S10B87F212AEB811BD60B839E4
S1135F897FFF1FFF5D40006408005D3E003001C0D3
S1135F995D40002801705D40002001485D40001803
S1135FA900F85D42001000805D42000800305D4445
S10F5FB9000400005D44000000005D4690
S10451FE3C70
S107713812BD87FAFF
S10D87FA34203184BD881B3520397A
S11368833442A62CEE2A2604851026098A10A72C46
S10B689335421CFE397E880425
S10C880484EFA72C35421A013956
S1054BF768D779
S10668D77E880DA7
S113880D342010AEB81CBD881B35207E4550340273
S113881D86043402B6A03B436CE48B2828FAA62CBC
S10C882D84F0AAE0A72C350239FD
S1066487BD883693
S11388368E6493BD679325153406A62C1F89C40F31
S111884627095A340484F0AAE0A72C35063919
S11367B212121212121212121212121212121212B3
S10F67C2121212121212121212121212EF
S11367B2A6A81D81042708A62C840F102600BA124D
S1075C4ABD885412A7
S1138854BD524E0B342210AE9F98758600BD471B43
S10F8864B7A1DA840F8A0CA72C35223946
S1065C6DBD88707B
S10A8870BD88581DDD7E39AF
S1096A27121212BD887773
S113887712A62C840F270AF6A1DABD60B88E88A742
S10B888739BD60968E5D77395E
S1096A3E121212BD888F44
S113888F12A62C840F270AF6A1DABD60F48E88A7EE
S113889F39BD60A78E5D77397FFF2FFF5D3E006482
S11388AF03005D40003001C05D40002801705D4051
S11388BF002001485D40001800F85D420010008060
S11388CF5D42000800305D44000400005D44000078
S10788DF00005D46EE
S1135D777FFF2FFF5D3A080020005D3E040001000D
S1135D875D42025802805D3C005002005D400040C5
S1135D9701805D3E002001005D3E001000C05D40B3
S1095DA7000000805D42D3
S1066A11BD88E356
S11388E3BD5208BD67932511E62CA62CC40F27019E
S10D88F35A340484F0AAE0A72C39DB
S10665187E88FD79
S11388FD12E6881C8104102EDDCAC104102FDC0E73
S108890DC6047E651B99
S10857311212BD8912F3
S10C8912B6A1B98B02B7A1B93971
S10761E312BD891B41
S107620F12BD891B14
S113891B3440EE2411834BAA270C11834C0A270DE8
S113892B10AEB81135C010AE9F987535C010AE9F00
S107893B4F5035C0A0
S113625534261F204D2D146DE4102D26F6E3E11090
S1136265A302102F26EFEC021626EA6DE47E893F81
S113893F122C16E3E134064D2C04435082FF10A38E
S111894F022F064F5FA302EDE43506352039F2
S10F5DEF060004105D40000003005D3E4F
S1135E677FFF0FFF5D40020004505D3E010003C544
S1135E775D3E008003205D40004002005D4000203D
S1135E8701805D42001000E05D42000000905D4427
S1135DB304000FFF5D3E012803005D3E00880200DE
S1135DC35D3E004001005D40002800805D400018F6
S1135DD300005D42000800005D440000FFF05D3EEA
S10855DEBD895D1212FD
S113895DB6A01381132508BD380D89727E8971BDAA
S10D896D380D4CF53921A85A0C000E
S1047618006D
S10475B3389B
S10475B53C95
S10475BB3A91
S1062F3D7E2F855B
S10686FBBD8977BB
S1138977121212BD897E393406B6BFFF340284FB56
S1138987B7BFFFB7C900CC05FBFDCA06CC7400FD11
S1138997CA04B6A053B7CA01C612F7CA00C631F74C
S11389A7CA07CC8E66FDCA04C652F7CA00868DB7BD
S11389B7CA04C692F7CA00CC1D06FDCA068675B757
S11389C7CA04C612F7CA008699B7CA05F7CA00359A
S10F89D702B7BFFFB7C9007FCA01358694
S10535A3861A82
S10635A9BD89E3F2
S11189E3F6A053F7CA01B7CA00127FCA0139C1
S106775A7E89F130
S11389F1C603F1A03D2415D7008606C6053D1F9880
S1138A01BD4757A03ED600CB047E89F38610BD47EF
S1138A1157A03EB6A03D2604869920078E8A2D8450
S1138A2103A686B7A053BD897E35763900BB66DDC2
S10630DDBD8A3174
S10A8A31B7A013B7A1DB3964
S10633A7BD8A38A0
S1138A38B7C900B6A1DBF6A1DCB7A1DCF7A1DB3925
S1065915BD8A48FC
S10F8A48FDA0167DA1BA27037CA1DB3938
S10681C27E85A50E
S11385A5BD33CF7DA1DB270EBD45F185BE0AA15D97
S11385B57FA1DBBD6A7D7E81C5BD45D15ADAA16B3C
S11385C5AE1EAF28CC0078BD33CFAEB808CC466D0F
S10B85D5ED02BD322D7E466D5E
S10679C6BD8A541F
S1138A54BD45F18A6F05A16B862DA704BD45F18A36
S1138A648605A164860EA7047E329CA6244A102798
S1138A74BBF7A724C63F472402C607D71EEC3EDD36
S1138A8443396A241027BBE1AE9F9875AE0A2710B8
S1138A94EC053406C30A12ED05BD78983506ED05D8
S1088AA4EC3EDD433946
S10681E17E8AA9E6
S1138AA9BD897E7DA1DB26068E58537E81E48E4ED8
S1138AB94EBD2E29C6118682BDE2038E402BBD2EE2
S1138AC929C6118683BDE2038684BDE2038685BD7A
S10D8AD9E2038686BDE2037E826F8D
S10682B97E8AE3D3
S1138AE37DA1DB2606BDE20C7E82BC301D867A7E28
S1058AF382BE3D
S10782FE7E8AF51269
S1138AF53506ED047DA1DB2708CE0001EF04CC008B
S1078B05F07E830275
S10885777E8B091212C5
S1138B0910AE4CAE4A8CCF0A2626BD857ABEA1D6B4
S1138B19260610BFA1D6200F10BFA1D810BCA1D61C
S1138B292205300EBFA1D6BD8B5F10AE4C8EDE2A56
S1138B39BD857ABEA1DD260610BFA1DD200F10BFB9
S1138B49A1DF10BCA1DD2205300EBFA1DDBD8B5F05
S1098B5973A1D57E85F82E
S105857A3410B7
S105858FAE63D5
S10685A232653902
S10B8B5F1F2110AE4C7E85DEDF
S10685F539121222
S106836CBD8B675B
S10686C8BD8B67FC
S10D8B67FDA1D8FDA1DDFDA1DF3959
S1097BC07E8B711212120B
S1138B7110BCA1D81027F04D10BCA1DD1027F04581
S10E8B8110BCA1DF1027F03D7E7BCC70
S106510CBD8B8CC8
S1138B8CBD45F18B9E07A164CC04B0ED046F06586F
S1138B9C4939EC248300011027BAC6ED245D272F34
S1138BAC1083021C22390D8B26256D26261A63266A
S1138BBC86023402CE8C07ECC0BD6FFC11838C0B87
S1138BCC26F56AE426EE3261AE9F4F50BD8BFAAEA9
S1138BDC9F9875EC0A270DEC24542408BD8BFAECF1
S1138BEC3EDD433934761F12BD612F7E6A1C4F5F04
S1138BFCA706A707AE0AED0EED0C396F6F8F8F6FBA
S11279FCBD45F18C0C05A15D860DA7047E466D7B
S1138C0C6A242708BD3C0BEC3EDD4339CC4ECDFD2C
S1138C1CA014AE9F9875EE04ADD807BD322D0A8C06
S1098C2CBD329C7E466D82
S9030000FC
